{
  "contractName": "MedicalRegistry",
  "abi": [
    {
      "constant": true,
      "inputs": [
        {
          "name": "",
          "type": "address"
        }
      ],
      "name": "_entries",
      "outputs": [
        {
          "name": "entryHash",
          "type": "string"
        },
        {
          "name": "doctorAddr",
          "type": "address"
        }
      ],
      "payable": false,
      "stateMutability": "view",
      "type": "function"
    },
    {
      "inputs": [],
      "payable": false,
      "stateMutability": "nonpayable",
      "type": "constructor"
    },
    {
      "constant": false,
      "inputs": [
        {
          "name": "user",
          "type": "address"
        },
        {
          "name": "enrtyHash",
          "type": "string"
        }
      ],
      "name": "pushEntryHash",
      "outputs": [],
      "payable": false,
      "stateMutability": "nonpayable",
      "type": "function"
    },
    {
      "constant": true,
      "inputs": [
        {
          "name": "user",
          "type": "address"
        }
      ],
      "name": "getEntryHash",
      "outputs": [
        {
          "name": "",
          "type": "string"
        },
        {
          "name": "",
          "type": "address"
        }
      ],
      "payable": false,
      "stateMutability": "view",
      "type": "function"
    }
  ],
  "bytecode": "0x608060405234801561001057600080fd5b5060008054600160a060020a031916331790556104fa806100326000396000f3fe608060405260043610610050577c01000000000000000000000000000000000000000000000000000000006000350463104cea1781146100555780634ae6a98b1461011a578063a3af062d146101de575b600080fd5b34801561006157600080fd5b506101186004803603604081101561007857600080fd5b600160a060020a0382351691908101906040810160208201356401000000008111156100a357600080fd5b8201836020820111156100b557600080fd5b803590602001918460018302840111640100000000831117156100d757600080fd5b91908080601f016020809104026020016040519081016040528093929190818152602001838380828437600092019190915250929550610211945050505050565b005b34801561012657600080fd5b5061014d6004803603602081101561013d57600080fd5b5035600160a060020a031661028e565b604051808060200183600160a060020a0316600160a060020a03168152602001828103825284818151815260200191508051906020019080838360005b838110156101a257818101518382015260200161018a565b50505050905090810190601f1680156101cf5780820380516001836020036101000a031916815260200191505b50935050505060405180910390f35b3480156101ea57600080fd5b5061014d6004803603602081101561020157600080fd5b5035600160a060020a0316610370565b60408051808201825282815233602080830191909152600160a060020a038516600090815260018252929092208151805192939192610253928492019061041b565b50602091909101516001909101805473ffffffffffffffffffffffffffffffffffffffff1916600160a060020a039092169190911790555050565b6060600061029a610499565b600160a060020a0384166000908152600160208181526040928390208351815460029481161561010002600019011693909304601f810183900490920283016060908101855293830182815292939092849290918491908401828280156103425780601f1061031757610100808354040283529160200191610342565b820191906000526020600020905b81548152906001019060200180831161032557829003601f168201915b505050918352505060019190910154600160a060020a03166020918201528151910151909350915050915091565b60016020818152600092835260409283902080548451600294821615610100026000190190911693909304601f81018390048302840183019094528383529283918301828280156104025780601f106103d757610100808354040283529160200191610402565b820191906000526020600020905b8154815290600101906020018083116103e557829003601f168201915b50505060019093015491925050600160a060020a031682565b828054600181600116156101000203166002900490600052602060002090601f016020900481019282601f1061045c57805160ff1916838001178555610489565b82800160010185558215610489579182015b8281111561048957825182559160200191906001019061046e565b506104959291506104b1565b5090565b60408051808201909152606081526000602082015290565b6104cb91905b8082111561049557600081556001016104b7565b9056fea165627a7a723058207a4281b696736e24a069432582e06c5b368fd3916f15bdbbc174caa484f699600029",
  "source": "pragma solidity >=0.4.21 <0.7.0;\n\ncontract MedicalRegistry {\n    address _onwer;\n\n    struct Entry {\n        string entryHash;\n        address doctorAddr;\n    }\n\n    mapping (address => Entry) public _entries;\n\n    constructor() public {\n        _onwer = msg.sender;\n    }\n\n    function pushEntryHash(address user, string memory enrtyHash) public {\n        _entries[user] = Entry({\n            entryHash: enrtyHash,\n            doctorAddr: msg.sender\n        });\n    }\n\n    function getEntryHash(address user) public view returns(string memory, address) {\n        Entry memory entry = _entries[user];\n\n        return (entry.entryHash, entry.doctorAddr);\n    }\n}",
  "sourcePath": "/Users/grigory/Documents/StartBlock/sex-hack/contracts/MedicalRegistry.sol",
  "compiler": {
    "name": "solc",
    "version": "0.5.1+commit.c8a2cb62.Emscripten.clang"
  },
  "schemaVersion": "3.0.23",
  "updatedAt": "2020-04-18T13:34:49.981Z",
  "networkType": "ethereum",
  "devdoc": {
    "methods": {}
  },
  "userdoc": {
    "methods": {}
  }
}